:020000040800F2
:10000000D0590020E1010008E9010008EB010008D7
:10001000ED010008EF010008F101000800000000F8
:10002000000000000000000000000000490100087E
:10003000F5010008000000008D010008A9DC00089F
:10004000FB010008FB010008FB010008FB010008A0
:10005000FB010008FB010008FB010008FB01000890
:10006000FB010008FB010008FB010008FB01000880
:10007000FB010008FB010008FB010008FB01000870
:10008000FB010008FB010008FB010008FB01000860
:10009000E9780008FB010008FB010008FB010008EB
:1000A000FB010008FB010008FB010008FB01000840
:1000B000FB010008FB010008FB010008FB01000830
:1000C000FB010008FB010008FB010008FB01000820
:1000D000FB010008F973000821750008F575000898
:1000E000FB010008FB010008FB010008FB01000800
:1000F000FB010008FB010008FB010008FB010008F0
:10010000FB010008FB010008FB010008FB010008DF
:10011000FB010008FB010008FB0100082D6C000832
:10012000FB010008FB010008FB010008FB010008BF
:10013000DFF810D000F052FD0048004755BD000820
:10014000AFF30080D0590020224B19680868B0E84E
:10015000F00F80F30988BFF36F8F4FF0000080F33A
:1001600011884EF00D0E7047000000000648006830
:10017000006880F3088862B661B6BFF34F8FBFF3A3
:100180006F8F00DF00BF00BF08ED00E0EFF30980D4
:10019000BFF36F8F0F4B1A6820E9F00F106008B59E
:1001A0004FF0BF0080F31188BFF34F8FBFF36F8F05
:1001B0000DF0A8FB4FF0000080F31188BDE8084067
:1001C00019680868B0E8F00F80F30988BFF36F8FF3
:1001D000704700BF90010020EFF3058070470000DA
:1001E0000648804706480047FEE7FEE7FEE7FEE7D1
:1001F000FEE7FEE7FEE7FEE7FEE7FEE781690008AF
:10020000310100082DE9F0410024061B254671F15B
:10021000000605DA01240027D0EB070067EB010197
:10022000161E73F1000605DA0027D2EB070201253E
:1002300067EB030300F0ACFB86460E4617469C4670
:10024000AC4204D00025D0EB050E65EB010624B1CD
:100250000020D2EB000760EB030C704631463A46B3
:100260006346BDE8F08100000649074A086850432C
:1002700043F23902104408604008704701490860A1
:10028000704700001C0200206D4EC64140EA010389
:100290009B0703D009E008C9121F08C0042AFAD23C
:1002A00003E011F8013B00F8013B521EF9D2704700
:1002B000D2B201E000F8012B491EFBD270470022A8
:1002C000F6E710B513460A4604461946FFF7F0FF55
:1002D000204610BD30B504460020034600E05B1CFC
:1002E000934203D2E05CCD5C401BF8D030BDF0B44B
:1002F00080EA0102D40F4200B2EB410F02D2024663
:10030000084611464A0042D0C30DDDB2C1F3C752C0
:10031000AD1A202D35DAC1F3160141F4000204B103
:100320005242C5F1200602FA06F12A411044B3EB0D
:10033000D05F23D0C4B1012DA0EBC35009DCF0BCC9
:100340004FF0004202EAC352DBB200F5000000F0B9
:100350008ABB400000F1807000EBC350A0F18070B8
:1003600040EAD170490009E0490841EAC071A0EBB8
:10037000C35000F50000400800EBC350F0BC00F093
:1003800069BB6142012202EB4101001BF6E7F0BCB0
:10039000704781F00041AAE780F00040A7E780EABB
:1003A000010210B502F00043400022D04A001FD0E5
:1003B000010E01EB1261C0F35600C2F3560240F485
:1003C000000042F40002A0FB022000047F39140464
:1003D00000D0401C50EA124001D44000491EC2B275
:1003E0000C0604EBD010401C4008802A02D003E029
:1003F000002010BD20F00100002900DA0020184381
:1004000010BD30B480EA010202F0004530F0004235
:1004100021F0004013D090B1C30DD40DC2F31601EA
:10042000C0F31600E41A41F4000140F400027D34E8
:10043000914201D3641C00E04900002C02DA30BC78
:10044000002070474FF400000023914201D3891A25
:10045000034340084FEA4101F7D151B1914202D123
:100460004FF0004105E002D24FF0010101E06FF0D2
:10047000010103EBC450284430BC00F0EBBA2DE975
:10048000FE4F804681EA0300C00F0C46009021F029
:10049000004123F00045B8EB0200A94105D24046D7
:1004A000214690461C460B46024623F0004010436E
:1004B00047D0270DC7F30A00C3F30A510290401A30
:1004C000019040286BDAC3F3130040F4801B0098BE
:1004D000924620B10023D2EB030A63EB0B0B019889
:1004E0005946C0F14002504600F083FA06460D46D8
:1004F00050465946019A00F09BFA10EB0800614102
:10050000002487EA115284EAE7731A4340D0009A24
:1005100062B3019A012A4FEA075215DC001B61EB16
:1005200002014FF0004202EA0752CDE90042001CEE
:1005300041F5801132462B4600F0D2FA03B0BDE8F7
:10054000F08F40462146F9E7001B61EB0201001CD9
:1005500041F5801300185B412018A2F5001747EB06
:10056000030140EAD570B6196D4111E06D084FEAFC
:10057000360645EAC0754FEA0752001B61EB0201DF
:10058000001C41F5801149084FEA30000019514123
:1005900032462B4603B0BDE8F04F00F092BA009807
:1005A000012240000023D0EB020263EBE0730098CD
:1005B00021464FEAE074B8EB000061EB0401E9E783
:1005C00083F000435BE781F0004158E72DE9FE4FDF
:1005D00081EA030404F0004421F0004100944FF04C
:1005E000000B23F0004350EA01045ED052EA0304FA
:1005F0005BD0C3F30A54C1F30A552C44A4F2F3347C
:100600000194A0FB0254C1F3130141F48011C3F320
:10061000130343F4801301FB024400FB034E840ADE
:10062000970A44EA815447EA8357A4FB0768029576
:100630008D0A05FB07854FEA932C04FB0C54270514
:10064000029D4FEA065847EA1637B5EB08056EEBF0
:10065000070C870E920E47EA811742EA8312A7FB26
:100660000201B6EB0B0164EB00042B0D43EA0C33E3
:100670005E1844EB1C50DA465146E7FB0201C5F315
:1006800013044FEA0B3343EA14534FEA0432019C3C
:1006900043EA0603A4F10C040294009CCDE900B4E3
:1006A00000F01EFA03B0BDE8F08F00200146F9E724
:1006B0002DE9F04D81EA030404F0004B21F00045E0
:1006C00014464FF0000A23F0004150EA050220D002
:1006D00054EA01021DD0C5F30A570246C5F31303BD
:1006E000C1F31300C1F30A5640F4801543F480139C
:1006F000A7EB0608101BD64608F2FD3873EB050081
:1007000002D308F1010801E092185B41B8F1000F33
:1007100003DA00200146BDE8F08D00204FF480117F
:10072000064684460EE0171B73EB050705D3121B24
:1007300063EB050306434CEA010C49084FEA30001D
:1007400092185B4150EA0107EDD152EA030012D042
:1007500082EA040083EA0501084305D0101BAB417F
:1007600006D20122002306E000224FF0004302E0FF
:100770006FF0010253101AEB06004CEB085110EB1E
:100780000A0041EB0B01BDE8F04D00F09AB9C10F32
:1007900080EAE0700844CA079623002100F063B99C
:1007A00096230022114600F05EB90EB5C10F80EA13
:1007B000E0700844CA07002140F233438DE80E0080
:1007C0000A460B4600F08CF903B000BD0EB540F2AE
:1007D000334102910021CDE900110A460B4600F099
:1007E0007FF903B000BD00F0004220F00040C10DD1
:1007F000C0F3160040F400007F2901DA00207047A2
:10080000962903DCC1F19601C84001E09639884081
:10081000002AF4D04042704720F00040C10DC0F3E0
:10082000160040F400007F2901DA00207047962965
:1008300003DCC1F19601C840704796398840704783
:1008400070B5C1F30A5201F000450024C1F3130151
:1008500040F2FF3341F480119A4201DA002070BD6A
:1008600040F233439A42A2F2334203DC524200F098
:10087000CFF800E090402C43F1D0404270BD00F032
:10088000004230F000400AD0C10D01F56071C0F3A4
:10089000160042EA0151C208400711437047002088
:1008A0000146704730B5041E71F1000404DB4FF0BF
:1008B0000044404264EB0101141E73F1000405DBA7
:1008C0001C464FF00043524263EB04038B4208BFC7
:1008D000824230BD30B5041E71F1000404DB4FF0DC
:1008E0000044404264EB0101141E73F1000405DB77
:1008F0001C464FF00043524263EB0403994208BF89
:10090000904230BD01F0004330B421F0004150EA84
:10091000010206D00A0DA2F56072C1F31301002A8C
:1009200002DC30BC00207047440F44EAC104C1001F
:10093000E01830BC00EBC25000F08CB8002801DB9E
:10094000C0F10040002901DBC1F100418142704744
:10095000002801DBC0F10040002901DBC1F10041AA
:100960008842704730B50B46014600202022012402
:1009700009E021FA02F59D4205D303FA02F5491B6D
:1009800004FA02F52844151EA2F10102F1DC30BD83
:100990002DE9F05F0546002092469B4688460646B4
:1009A000814640241BE0284641464746224600F047
:1009B0002FF853465A46C01A914110D31146184693
:1009C000224600F016F82D1A67EB01084F46224622
:1009D0000120002100F00DF817EB00094E41201E08
:1009E000A4F10104DFDC484631462A464346BDE80F
:1009F000F09F202A04DB203A00FA02F10020704721
:100A00009140C2F1200320FA03F31943904070474C
:100A1000202A04DB203A21FA02F00021704721FA53
:100A200002F3D040C2F120029140084319467047BA
:100A3000202A06DBCB17203A41FA02F043EAE073A2
:100A400006E041FA02F3D040C2F12002914008438F
:100A5000194670470029A8BF7047401C490008BFCD
:100A600020F00100704710B4B0FA80FC00FA0CF0DE
:100A700050EA010404BF10BC704749B1CCF1200416
:100A800021FA04F411FA0CF118BF012121430843A3
:100A9000A3EB0C01CB1D4FEA00614FEA102042BFCF
:100AA000002010BC704700EBC35010440029A4BFC5
:100AB00010BC7047401C490008BF20F0010010BC6A
:100AC000704710B5141E73F1000408DA401C41F1A0
:100AD000000192185B411A4301D120F0010010BDC2
:100AE0002DE9F04D92469B4611B1B1FA81F202E038
:100AF000B0FA80F220329046FFF77BFF04460F46A3
:100B000040EA0A0041EA0B0153465A46084313D013
:100B1000114653EA010019D0C8F140025046FFF7D0
:100B200077FF05460E46504659464246FFF761FF9D
:100B3000084305D0012004E020463946BDE8F08D89
:100B40000020054346EAE0762C4337430A986305C4
:100B5000E40AA0EB08000022FD0A44EA47540A30E8
:100B600002D500200146E9E7010510196941DDE9D8
:100B7000084500196941BDE8F04DA2E770B521F0C4
:100B8000004303430CD0C1F30A550024D5EB040500
:100B900064EB0403D617AD1AB34102DB0020014613
:100BA00070BD201841EB025170BDC1F30A52C1F370
:100BB000130140F2FF3341F480119A4202DA00201F
:100BC0000146704740F233439A42A2F2334202DCBC
:100BD0005242FFF71DBFFFF70CBF0000064C074D48
:100BE00006E0E06840F0010394E8070098471034FD
:100BF000AC42F6D3FFF7A0FAD0160108F0160108B0
:100C0000420005D0C0F3C7525242914201DC00209D
:100C1000704700EBC15070472DE9F04D00231A4694
:100C20001B1A8A4103DB00200146BDE8F08DC1F3A9
:100C30000A52C1F3130141F480154FF0000BD107A4
:100C400002D100186D41521E0027044640F2FF11E8
:100C5000384601EB620A3E468046024600204FF4C9
:100C60008011FFF7D5FEC2197141BB1846EB010098
:100C7000B4EB030C75EB000C04D3E41A65EB000530
:100C800017460E46241908F101006D4180463428AC
:100C9000E3DDF91946EB0600091BA84103D24FF02A
:100CA000FF32134601E0002213461BEB070046EB20
:100CB0000A51BDE8F04DFFF704BF70B58C1810F86D
:100CC000015B15F0070301D110F8013B2A1106D191
:100CD00010F8012B03E010F8016B01F8016B5B1EAB
:100CE000F9D12B0705D40023521E0DD401F8013B86
:100CF000FAE710F8013BCB1A921C03E013F8015BF2
:100D000001F8015B521EF9D5A142D8D3002070BD75
:100D100021B1826842F00102826003E0826822F021
:100D2000010282607047000010B5044612488442F8
:100D300008D10121401504F057FF0021601504F08F
:100D400053FF17E00D48844208D10121001504F03B
:100D50004BFF0021201504F047FF0BE008488442B8
:100D600008D10121C80304F03FFF00214FF40040E7
:100D700004F03AFF10BD00000024014000280140AB
:100D8000003C0140014600208A6802F004020AB1DA
:100D9000012000E0002070470146C86C80B2704717
:100DA0000246002013680B400BB1012000E0002038
:100DB0007047014600208A6802F008020AB101204B
:100DC00000E000207047000030B5024600200023FC
:100DD00050680F4C20400D790C6844EA05242043EC
:100DE000506090680B4C2040D1E902542C434D795F
:100DF00044EA450420439060D06A20F470000C7CE3
:100E0000641EE4B2234340EA0350D06230BD0000C8
:100E1000FFFEF0FFFDF7F1FFF0B504460D460020A0
:100E20000021092D11DDE068A5F10A0606EB460751
:100E3000072606FA07F18843A5F10A0606EB4606DF
:100E400003FA06F10843E0600CE0206905EB450772
:100E5000072606FA07F1884305EB450603FA06F173
:100E600008432061072A0FDA606B561E06EB8607DF
:100E70001F2606FA07F18843561E06EB860605FA7A
:100E800006F10843606322E00D2A0FDA206BD61FBB
:100E900006EB86071F2606FA07F18843D61F06EBE6
:100EA000860605FA06F10843206310E0E06AA2F125
:100EB0000D0606EB86071F2606FA07F18843A2F106
:100EC0000D0606EB860605FA06F10843E062F0BD62
:100ED000816841F008018160704721B1826842F465
:100EE000A002826003E0826822F4A0028260704760
:100EF000816841F004018160704700002DE9F04FE6
:100F00008DB00446894692469B4670480460B9F10C
:100F1000FF0F06D02D225142484603F00DFA6C49CE
:100F200008606B480068FFF732FC054669480168B5
:100F30002846FFF734FA6849086054B9012003F0E5
:100F4000BDFE002065490860634908600DB0BDE83A
:100F5000F08F5F48006888BB5046FFF718FC0546D5
:100F60005F49FFF74EFA5D49086058480068FFF78F
:100F70000EFC06465B4959480068FFF710FA074621
:100F80003146FFF73EFA054609F0CAFC52490860AF
:100F90005548016850480068FFF701FA0646FFF718
:100FA00022FC05462D22514203F0C6F9484908604B
:100FB0000846008800B200F037F905E0FFE7444832
:100FC000008800B200F030F943480068FFF757FC92
:100FD000CDE900010CF074FB4FF08042434BCDE9AA
:100FE0000201FFF7F3FA074600224FF08043FFF7B4
:100FF0005FFB00223E4BCDE90401FFF759FB0022C5
:101000003C4BCDE90601FFF73AFACDE90A012F483A
:101010000068FFF7CAFBCDE90801DDE90A23FFF705
:10102000D5FA0546FFF70CFC334908602A480068EA
:10103000FFF725FCCDE900010CF042FB4FF08042A8
:101040002A4BCDE90201FFF7C1FA00224FF080439D
:10105000CDE90401FFF72CFB05460022244BFFF7E6
:1010600027FB07460022234BFFF7ADFACDE9080125
:1010700016480068FFF799FBCDE90601DDE9082372
:10108000FFF7A4FACDE90A01FFF7DAFB1B49086074
:101090004FF4FA6251421848006803F04DF91649BE
:1010A00008604FF4FA6251421448006803F044F9B2
:1010B000124908600846008803B200220E480088E2
:1010C00001B2104603F0B2FD00BF3FE7D40000209C
:1010D000D8000020E4DF0008E0000020DC00002051
:1010E00000007A44B85E6B43E0DF000833E36740FA
:1010F000D76B6D400000F03FCC000020D0000020F6
:101100000148008870470000E40000207CB5002002
:10111000009001900025FF208DF80000FB208DF845
:10112000010005208DF8020030208DF80300012019
:101130008DF804000A4800788DF80500022405E0C7
:101140001DF804002844C5B2601CC4B2062CF7DBAD
:101150008DF806500721684606F0BAF97CBD0000FC
:10116000E400002070B504460D46B42C00DD70BDCF
:10117000064804800178002004F08EFC1DB103486D
:10118000008801F011FF00BFF1E70000E40000203B
:1011900070B505460C461646082D41D2DFE805F02D
:1011A000040C131B232A32390CB1012100E0002169
:1011B000084603F083FD34E033460022FF2120B2CD
:1011C000FFF79CFE2DE033460022FF21604200B273
:1011D000FFF794FE25E0334600226FF0180120B29D
:1011E000FFF78CFE1DE033460022192120B2FFF7E5
:1011F00085FE16E0334600226FF02C0120B2FFF787
:101200007DFE0EE0334600222D2120B2FFF776FE50
:1012100007E0002000F008F8012003F04FFD00E097
:1012200000BF00BF70BD000070B5044605480460F3
:10123000FFF766FF2044C5B22946002004F02CFCCD
:1012400070BD0000D800002070B504464FF47A75D8
:101250000723012221460B48FFF7DEFD0121094843
:10126000FFF73BFE00BF02210648FFF799FD20B9BA
:10127000281EA5F101018DB2F5D10248FFF78CFDC2
:1012800070BD0000002401402DE9F04107460C46E6
:101290000025002606E03846FFF7D6FF284485B231
:1012A000701CC6B2A642F6DB042C01D1AD1002E0E0
:1012B00095FBF4F085B22846BDE8F08110B500F04A
:1012C0000BF8044603492046FFF769F80446204618
:1012D00010BD0000C3F5804070B504210E20FFF75B
:1012E000D3FF05462846FFF75BFA06460249FFF79B
:1012F00056F80446204670BD3333533A00B587B0E4
:1013000001214FF4047004F05FFC4FF4004004F03E
:101310001FFC1020ADF8040000208DF8070001A983
:10132000174801F0E0FF1748FFF7FEFC002002908D
:101330008DF80C008DF80D004FF460200490002013
:10134000059001208DF8180002A90E48FFF73CFD1A
:1013500001210C48FFF7DCFC0A48FFF7B9FD00BF8C
:101360000848FFF726FD0028FAD10648FFF7C0FD20
:1013700000BF0448FFF706FD0028FAD107B000BD02
:10138000001001400024014010B502F071FD044638
:10139000034801682046FFF702F80249086010BDC3
:1013A000E0DF00081400002010B5044620460CF0D1
:1013B00051FA10BD10B504F02BF908F0F9FD01F059
:1013C000ADFB00F0A3F9012807D003F0E1F90446D2
:1013D00005230022022103F05FFE02F0A5FE10BDEE
:1013E00010B500F079F908F05BFD10BD10B500F004
:1013F000BDFA10BD014908707047000010000020C0
:101400001CB500200A2103464FF40072CDE90010FC
:1014100022A125480CF062FC00200921034680220D
:10142000CDE9001021A125480CF058FC002008212E
:1014300003468022CDE9001021A124480CF04EFC87
:101440000020072103464FF40072CDE9001020A1CF
:1014500022480CF043FC0020042103468022CDE901
:1014600000101FA122480CF039FC00200321034684
:101470004FF40072CDE900101EA121480CF02EFCA3
:101480000020012103464A02CDE900101DA1204899
:101490000CF024FC0CF0F8F91CBD00005461736BD7
:1014A000205370656564000059DC00085461736B5B
:1014B00020436F6E74726F6C0000000005DA000844
:1014C0005461736B204B45590000000041DA00085D
:1014D0005461736B205265706F7274009DD900085F
:1014E0005461736B204170705F48616E646C65007D
:1014F00065D900085461736B204D50550000000001
:10150000EDDA00085461736B204F4C454400000035
:1015100019DB000810B5012002F0A8F9002000F046
:1015200075FC012003F0CAFB64224FF4FA61FE202F
:1015300006F008FA03F096FE022001F0C1FD10BD8E
:1015400010B515480088401C1349088008460088DB
:101550000A281DDB0020088000F02AF805F040FA78
:10156000A0B900F081F90D48007840B100200B4986
:10157000087001231A46022109A003F056FD01203C
:1015800003F09CFB01200949087001E000F08EF98E
:101590000648007810BD00005000002053000020D5
:1015A00042617474657279204C6F7700520000209C
:1015B00070B512480078F0B1FFF780FE054610497B
:1015C000FEF7EDFE0446FFF70EF90E4908600846E7
:1015D000006860280CDA0C480068401C0A49086062
:1015E00008460068142806DD00200449087002E05F
:1015F0000020054908600148007870BD44000020C3
:1016000000002041480000204C00002001480068F4
:10161000704700004800002008B50121102004F0A8
:10162000D3FA2020ADF8000010208DF8030003202D
:101630008DF802006946044801F055FE2021024859
:1016400001F02DFF08BD00000010014001480078A6
:1016500070470000F000002001480088704700003B
:10166000EE00002070B50446012C09D100F028F8E6
:10167000002000F02BF82021104801F012FF1BE0A1
:1016800054B9002000F01CF8002000F01FF82021C1
:101690000A4801F004FF0FE00A2C0DDB022000F0E5
:1016A0000FF80A2094FBF0F085B2284600F00EF8FF
:1016B0002021024801F0F5FE70BD0000001001403D
:1016C0000149087070470000F000002001490880BF
:1016D00070470000EE00002010B5FFF7B7FF0228AA
:1016E0000FD1FFF7B9FF28B106480088401E054911
:1016F000088006E02021044801F0D1FE0020FFF719
:10170000DFFF10BDEE00002000100140014800780E
:1017100070470000EA00002010B509F0F1F94FF41D
:10172000A06003F073FC4FF4E13005F077FE052371
:101730000022022128A007F0F5F92FA231A134A040
:1017400007F0F0F93A4805F0FFFE4FF4E13005F0FC
:1017500063FF012000F070F802F038F8FFF75CFF3B
:1017600002F022F8FFF7CAFD02F04CF800214FF416
:10177000616003F0CBFA00F095FE01F0ABFE0AF0D9
:101780004DFA04F07FFE642000F024F904F0FEFA24
:1017900001F0D0FC27480078012802D1FFF7BAFEFB
:1017A00013E02448007818B9002002F05FF80CE03C
:1017B00003F040FE022002F059F8002001F080FC06
:1017C000642009F0BBF900F0B9F805F03FFA04F025
:1017D000F1F801F063FF10BD0A4669726D7761721E
:1017E000652056657273696F6E3A205625642E2502
:1017F000642E25640A00000031383A33373A353414
:10180000000000004D617920313420323032320046
:101810004669726D7761726520436F6D70696C65A2
:10182000643A2025732C2025730D0A0A000000005D
:10183000A0860100EA00002001464906084A926994
:1018400042F00102064B9A61064A526822F0E062B9
:10185000044B5A601A4652680A435A6070470000A7
:10186000001002400000014010B50E48007860B141
:1018700020210D4801F015FE4FF400510A4801F0F7
:1018800010FE0020074908700BE02021064801F0F7
:1018900006FE4FF40051044801F001FE0120014909
:1018A000087010BDEC0000200010014010B5214868
:1018B0000078401C1F490870084600781E2801DB8C
:1018C000002008701B480078012809DB19480078BF
:1018D000042805DA4FF40051174801F0E2FD28E032
:1018E00014480078042809DB12480078072805DA34
:1018F0004FF40051104801F0D2FD1AE00D48007875
:10190000072809DB0B4800780A2805DA4FF4005154
:10191000094801F0C6FD0CE0064800780A2808DBFB
:10192000044800780D2804DA4FF40051024801F011
:10193000B6FD10BDEB00002000100140012080F337
:10194000138800BF00BF0748006800F4E060064944
:101950000843001D03490860BFF34F8F00BF00BF5D
:10196000FEE700000CED00E00000FA051CB50020C9
:10197000009001900024FF208DF80000FB208DF8DE
:10198000010005208DF8020051208DF8030002208F
:101990008DF8040000208DF80500022005E01DF8F8
:1019A00000102144CCB2411CC8B20628F7DB8DF8E8
:1019B00006400721684605F08BFD1CBD044A1070E7
:1019C00011460978022901DD0021117070470000DD
:1019D000EA0000203EB5044600F0EAF8154800F0A1
:1019E0002BF8684600F002FB00208DF806008DF809
:1019F00007008DF808008DF809008DF80A008DF8B1
:101A00000B008DF802008DF8030005208DF804000E
:101A100001208DF80500204600F0FCF8ADF800002C
:101A20006946044800F014F900F0A6F800F0AAF99D
:101A30003EBD00000064004010B504460B488442DF
:101A400009D10121480604F0AFF800214FF00070E1
:101A500004F0AAF808E00121880604F0A5F80021A6
:101A60004FF0806004F0A0F810BD0000006400405A
:101A700010B50021837A012202FA03F13D4A12686F
:101A800042F001023B4B1A603A4A1C3212688A4308
:101A9000384B1C331A60027BCAB9364A0C321268C2
:101AA0008A43344B0C331A604288C38842EA0343AA
:101AB000304A4032847A42F834300288838842EADD
:101AC00003432C4A4032847A02EBC4025360027B07
:101AD000012A19D1274A0C3212680A43254B0C33CC
:101AE0001A604288038842EA0343224A4032847AD9
:101AF00042F83430C288838842EA03431D4A4032A8
:101B0000847A02EBC4025360C27A3AB9194A121DB0
:101B100012688A43174B1B1D1A6006E0154A121DF6
:101B200012680A43134B1B1D1A60028932B9114A0D
:101B3000143212688A430F4B14331A600289012A47
:101B400006D10C4A143212680A430A4B14331A6045
:101B5000427B012A06D1074A1C3212680A43054B10
:101B60001C331A60034A126822F00102014B1A600A
:101B700010BD0000006600401FB500208DF80A006F
:101B80008DF80B0001208DF80C000020ADF800004E
:101B9000ADF80200ADF80400ADF80600ADF808009D
:101BA00001208DF80D006846FFF762FF1FBD0000A1
:101BB00008B50121480603F0E7FF0121084604F0BB
:101BC00003F80121082003F0FFFF01214FF4EA1080
:101BD00001F014FC4FF48070ADF8000048208DF83F
:101BE000030003208DF802006946094801F07BFBE1
:101BF0004FF40070ADF8000018208DF803000320AA
:101C00008DF802006946024801F06DFB08BD000036
:101C1000000C014001460420642900D100BF502976
:101C200000D10520322900D10820192900D1102027
:101C30000A2900D12820052900D1502070471AB167
:101C400043690B43436102E043698B43436170473F
:101C500030B5024600200023146824F0020414600A
:101C6000146844F00104146000E05B1C546804F044
:101C700001041CB94FF6FF74A342F6D1546804F076
:101C800001040CB900206CE08C79012C04D114689B
:101C900044F08004146003E0146824F080041460AD
:101CA000CC79012C04D1146844F04004146003E0A2
:101CB000146824F0400414600C7A012C04D11468D8
:101CC00044F02004146003E0146824F0200414603D
:101CD0004C7A012C04D1146844F01004146003E021
:101CE000146824F0100414608C7A012C04D1146858
:101CF00044F00804146003E0146824F0080414603D
:101D0000CC7A012C04D1146844F00404146003E07C
:101D1000146824F0040414608C78A407CD7844EA95
:101D200005640D7944EA05444D7944EA05540D886B
:101D30006D1E2C43D461146824F001041460002348
:101D400000E05B1C546804F001041CB14FF6FF7402
:101D5000A342F6D1546804F001040CB1002000E065
:101D6000012030BD0246002019B9D36803F00300FA
:101D700006E0012903D1136903F0030000E000200D
:101D80007047000008B5012202210948FFF757FFFC
:101D900014208DF8000002208DF8010001208DF83C
:101DA00002008DF80300684603F0F8F808BD000053
:101DB000006400402DE9FC410446277894F8078030
:101DC0000025FC2F01D0BDE8FC81012003E0215C4F
:101DD0002944CDB2401C0728F9DB454500D0F2E785
:101DE0006678A0788DF80000E0788DF80100207901
:101DF0008DF8020060798DF80300A0798DF8040059
:101E00006946304606F092F900BFDCE718B10121BF
:101E1000034A117002E00021014A1170704700006E
:101E20003E01002010B500F5D87303EB01131B68C9
:101E300003F004031372137A53B900F5D87303EB5C
:101E400001131B6840F2FF7404EA5353136009E066
:101E500000F5D87303EB01131B686FF0604404EACC
:101E6000D303536000F5D87303EB01131B6803F031
:101E70000203537200F5D87303EB01135B6803F0A0
:101E80000F03937200F5D87303EB01135B681B0A11
:101E9000D37400F5D87303EB01139B68D37200F57C
:101EA000D87303EB01139B681C0A147300F5D873F5
:101EB00003EB01139B681C0C547300F5D87303EB00
:101EC00001139B681B0E937300F5D87303EB01138A
:101ED000DB68D37300F5D87303EB0113DB681C0ACE
:101EE000147400F5D87303EB0113DB681C0C5474F5
:101EF00000F5D87303EB0113DB681B0E937421B953
:101F0000C36843F02003C36003E0036943F0200388
:101F1000036110BD10B586B0044600211848FFF7D4
:101F200021FF20B3002001908DF80C0008208DF8CF
:101F30000E00002004E000220DF10F010A54401CA5
:101F40000828F8DB01AA00210D48FFF76BFF0020ED
:101F500004E00DF10F01095C2154401C0828F8DB56
:101F60000848007850B13220FFF77CFB06E00020E3
:101F700002E000212154401C0828FADB06B010BD05
:101F8000006400403E01002070B586B00546002682
:101F90000F20019000208DF80D008DF80C00082016
:101FA0008DF80E00002404E0295D0DF10F000155AD
:101FB000641C082CF8DB01A90B4800F041F8064628
:101FC000002407E03146084800F0CEF8012800D18F
:101FD00003E0641CB4F57A7FF4DB00BFB4F57A7FCC
:101FE00000DB002406B070BD006400400021817158
:101FF000C171017241728172C1728170C17003211D
:102000000171022141710121018070471CB500203E
:1020100005E001218140C9B20DF80010401C0828DC
:10202000F7DB06480078401C044908700846007831
:102030008DF800006846FFF7A7FF1CBD3F01002098
:1020400010B502460020936803F08063B3F1806FFF
:1020500000D110E0936803F00063B3F1006F01D189
:10206000012008E0936803F08053B3F1805F01D151
:10207000022000E00420042874D002F5C07303EBB2
:1020800000131B6803F0010402F5C07303EB001397
:102090001C600B7A7BB94B7A0C8843EA445302F5F7
:1020A000C07404EB00142468234302F5C07404EBED
:1020B0000014236010E00B7A4C6843EAC4034C7AA6
:1020C000234302F5C07404EB00142468234302F593
:1020D000C07404EB001423608B7A03F00F038B723F
:1020E00002F5C07303EB00135B6823F00F0402F5E5
:1020F000C07303EB00135C6002F5C07303EB0013C5
:102100005B688C7A234302F5C07404EB00146360AF
:102110008B7B1C064B7B44EA03440B7B44EA032382
:10212000CC7A234302F5C07404EB0014A3608B7CCB
:102130001C064B7C44EA03440B7C44EA0323CC7B1F
:10214000234302F5C07404EB0014E36002F5C0738E
:1021500003EB00131B6843F0010402F5C07303EBAB
:1021600000131C6010BD000010B50246002321B111
:10217000012907D002290FD109E090681D4C00EA1F
:1021800004030BE090681C4C00EA040306E090682E
:102190001A4C00EA040301E0002300BF00BF184C02
:1021A000181BA34216D007DC83B16FF0806018447F
:1021B00070B1022818D111E0B0F5007F10D0114C99
:1021C000204448B1B0F5003F0ED10BE002230DE0F2
:1021D00000230BE0002309E0002307E0012305E0D2
:1021E000012303E0012301E0002300BF00BFD8B2B8
:1021F00010BD0000030000040003000800000310ED
:10220000000100080001FFF7002004E00021074A58
:102210001154411CC8B2064909788842F6DB0020F7
:102220000349087003490870704700002802002025
:10223000030000200200002000F0805111B103498A
:10224000086001E002494860704700000404024051
:102250000000024021B1026842F00102026004E085
:1022600002684FF6FE731A400260704701684FF62D
:10227000FE72114001600021016041608160C16017
:102280004B49884208D14A490839496841F00F0151
:10229000474A083A51608AE045491431884208D1DA
:1022A00043490839496841F0F001414A083A516010
:1022B0007DE03F492831884208D13D4908394968C5
:1022C00041F470613A4A083A516070E038493C3153
:1022D000884208D136490839496841F47041344A86
:1022E000083A516063E032495031884208D13049A0
:1022F0000839496841F470212D4A083A516056E086
:102300002B496431884208D129490839496841F488
:102310007001274A083A516049E0254978318842DE
:1023200008D123490839496841F07061204A083AC8
:1023300051603CE01F49884206D1011F096841F005
:102340000F01021F116032E01A491431884208D18E
:102350001849091F096841F0F001164A121F11605F
:1023600025E014492831884208D11249091F09681B
:1023700041F470610F4A121F116018E00D493C31A1
:10238000884208D10B49091F096841F47041094A84
:10239000121F11600BE007495031884207D10549EF
:1023A000091F096841F47021024A121F1160704729
:1023B00008000240080402400146486880B27047A5
:1023C00001460020002201F0805313B1054B1A682A
:1023D00001E0054B1A6802EA01030BB1012000E09D
:1023E00000207047000402400000024010B50022A7
:1023F000026847F6F0739A430C6A8B6823430C69B2
:1024000023434C6923438C692343CC6923434C6A9F
:1024100023438C6A23431A430260CB6843600B68F2
:1024200083604B68C36010BD4160704701B50020F8
:102430000AE0002001E0411CC8B20A28FBDB9DF83D
:102440000010491EC9B200919DF800100029F0D17A
:1024500008BD01B500200AE0002001E0411CC8B21F
:102460000A28FBDB9DF80010491EC9B200919DF8B7
:1024700000100029F0D108BD06490968016006492D
:102480000968416005490968816005490968C160BA
:1024900070470000F8000020FC0000200001002030
:1024A0000401002010B500F007F800F0D9F800F0A2
:1024B00039F900F073F810BD00B587B00120FFF7BF
:1024C000BBF90121084603F07FFB0121304800F0F1
:1024D00095FF0121084603F057FB0121042003F07A
:1024E00073FB4FF40040ADF8000004208DF80300AA
:1024F0006946284800F0F7FE0121082003F064FB3C
:102500000820ADF8000004208DF803006946224839
:1025100000F0E9FE04A804F035FF0020ADF810003B
:102520004FF6FF70ADF814000020ADF81600ADF8BE
:10253000120004A94FF0804004F0D2FE00231A4696
:1025400003214FF0804004F0C3FC01A804F048FDD3
:102550000A20ADF80C0001A9400704F0EBFC0121B2
:10256000880704F09FFB01221146900704F041FD0B
:1025700000214FF0804004F084FE47F6FF704FF0DA
:10258000804188840121880704F092FB07B000BDD8
:102590000001180000080140000C014000B587B0A0
:1025A0000121022003F0F0FA0121042003F00CFBCA
:1025B0008020ADF8000004208DF80300694626480D
:1025C00000F091FE0121042003F0FEFA4020ADF856
:1025D000000004208DF8030069461F4800F083FEC8
:1025E00004A804F0CFFE0020ADF810004FF6FF70F5
:1025F000ADF814000020ADF81600ADF8120004A9E3
:10260000164804F06DFE00231A460321134804F017
:102610005FFC01A804F0E4FC0A20ADF80C0001A95D
:102620000E4804F087FC01210C4804F03BFB01221A
:1026300011460A4804F0DDFC0021084804F021FEA0
:1026400047F6FF700549243108800121034804F052
:102650002FFB07B000BD000000080140000400404F
:1026600000B587B00121042003F08EFA0121082073
:1026700003F0AAFA8020ADF8000004208DF80300D2
:102680006946264800F02FFE0121082003F09CFA3D
:102690004020ADF8000004208DF8030069461F4873
:1026A00000F021FE04A804F06DFE0020ADF810003B
:1026B0004FF6FF70ADF814000020ADF81600ADF82D
:1026C000120004A9164804F00BFE00231A46032149
:1026D000134804F0FDFB01A804F082FC0A20ADF8C9
:1026E0000C0001A90E4804F025FC01210C4804F05F
:1026F000D9FA012211460A4804F07BFC002108485F
:1027000004F0BFFD47F6FF70054924310880012120
:10271000034804F0CDFA07B000BD0000000C0140F2
:102720000008004000B587B00121082003F02CFA12
:102730000121042003F048FA0120ADF80000042034
:102740008DF803006946264800F0CDFD01210420E4
:1027500003F03AFA0220ADF8000004208DF80300DF
:1027600069461F4800F0BFFD04A804F00BFE0020DE
:10277000ADF810004FF6FF70ADF814000020ADF872
:102780001600ADF8120004A9164804F0A9FD0023B4
:102790001A460321134804F09BFB01A804F020FC17
:1027A0000A20ADF80C0001A90E4804F0C3FB01217A
:1027B0000C4804F077FA012211460A4804F019FC8B
:1027C0000021084804F05DFD47F6FF7005492431FB
:1027D00008800121034804F06BFA07B000BD000037
:1027E00000080140000C00400146002031B10129E1
:1027F00010D0022918D003292AD11FE04FF08042BF
:10280000928C47F6FF739A1A10B21A464FF0804323
:102810009A841EE0104A128847F6FF739A1A10B283
:102820001A460D4B1A8014E00C4A128847F6FF73C3
:102830009A1A10B21A46094B1A800AE0084A1288FE
:1028400047F6FF739A1A10B21A46054B1A8000E039
:1028500000BF00BF7047000024080040240C004067
:102860002404004030B587B0182101A8FDF727FDEA
:102870000025FF208DF80400FB208DF805001320B3
:102880008DF806000D208DF807002F4800788DF890
:1028900008002D480088000A8DF809002A480068C1
:1028A000000C8DF80A0028480068000E8DF80B0017
:1028B000264800788DF80C0024480088000A8DF81E
:1028C0000D0022480068000C8DF80E001F480068BB
:1028D000000E8DF80F001E4800788DF810001C487F
:1028E0000088000A8DF8110019480068000C8DF866
:1028F000120017480068000E8DF813001548007884
:102900008DF8140013480088000A8DF8150011484E
:102910000068000C8DF816000E480068000E8DF857
:102920001700022405E001A8005D2844C5B2601C20
:10293000C4B2142CF7DB8DF81850152101A804F04F
:10294000C7FD07B030BD0000F8000020FC000020EB
:10295000000100200401002010B501F019FF022839
:1029600020D10020FFF740FF1F490968081A1E49BF
:1029700008600120FFF738FF1C49096808441B491B
:1029800008600220FFF730FF194909680844184918
:1029900008600320FFF728FF16490968081A15493F
:1029A00008601FE00020FFF71FFF0F490968084477
:1029B0000D4908600120FFF717FF0C490968081A44
:1029C0000A4908600220FFF70FFF09490968081A41
:1029D000074908600320FFF707FF06490968084414
:1029E0000449086010BD0000F8000020FC00002031
:1029F000000100200401002010B500F04DF904464C
:102A0000B42C03DD6424204600F0CEFA00212046D9
:102A1000FEF7A8FB10BD000010B586B0114B0FCB20
:102A200002AC0FC4002419E000200190611CC8B260
:102A300001A900F04FF9BDF80400B0F57A6F06DD8A
:102A400000F06AFA02A9601C31F810000190611CC4
:102A5000C8B2BDF8041005F0C9F9641C062CE3DB0C
:102A600006B010BDC0DF000810B500F05FF90446E5
:102A70004FF6FF70844200D10124204603F060FF2E
:102A800010BD10B500F070F9C4B24FF6FF7084426B
:102A900003D10124204600F0C9FA204602F078F85C
:102AA00010BD000070B50546002445F6FF7000F02B
:102AB0005DFB0446C4B90D48006940F002000B49B3
:102AC000086108464561006940F04000086145F62C
:102AD000FF7000F04BFB0446012C05D00348006951
:102AE00020F0020001490861204670BD002002402C
:102AF0000948C16801F0010008B10120704701F0E8
:102B0000040008B10220F9E701F0100008B1032029
:102B1000F4E70020F2E700000020024010B500F0CA
:102B200081F94AF65521884201D000F00FFAFFF7EB
:102B300063FFFFF7A6FFFFF797FF00F00DF8FFF721
:102B40006BFF10BD0348006940F080000149086137
:102B500070470000002002402DE9F04387B00020BC
:102B600006900590049004AB05AA06A9042000F085
:102B700019F90498FDF783FE04460D460598FDF704
:102B80007EFE06460F460698FDF779FE80464246D1
:102B90000B462AA0CDE90067CDE9024505F0C2FF4A
:102BA0002D490698FDF7D4FE09D32B490598FDF76A
:102BB000CFFE04D328490498FDF7CAFE0CD227485B
:102BC0000690274805904FF07C5004900420DDE9E2
:102BD0000432069900F03EFA0420DDE90432069939
:102BE00002F03CFE002006900590049004AA05A97E
:102BF00006A800F055F918490698FDF7A9FE09D373
:102C000015490598FDF7A4FE04D313490498FDF770
:102C10009FFE0AD2134806900020059012480490A7
:102C2000024600210F4800F057FADDE9042106981A
:102C300002F06AFE07B0BDE8F0830000465265610D
:102C400064205049443A252E33662C20252E3366C5
:102C50002C20252E33660A0000002041CDCC4C3FAD
:102C60008FC2753DCDCCCC3ECDCCCC3D2DE9F041D5
:102C700007460D461646002407E0384600F009F8DE
:102C800025F81400BF1C601C84B2B442F5DBBDE81B
:102C9000F08101460888704708B54FF6FF70009034
:102CA000012269460548FFF7E1FFBDF8001004A0C6
:102CB00005F038FFBDF8000008BD000070C0030833
:102CC000465265616420414B4D20416E676C653A08
:102CD00025640A00F8B504460D4600200090012C3A
:102CE00009DB062C07DC66000849701801226946DA
:102CF000FFF7BCFF00BFBDF800002880BDF8002032
:102D0000214603A005F00EFFF8BD000050C00308E7
:102D100046526561642041524D204D656469616E83
:102D20003A25642C2025640A0000000008B54FF6FF
:102D3000FF700090012269460548FFF797FFBDF834
:102D4000001004A005F0EEFEBDF8000008BD000074
:102D500006C003084652656164207265706F727424
:102D60003A25640A0000000008B54FF6FF70009095
:102D7000012269460548FFF779FFBDF8001004A05D
:102D800005F0D0FEBDF8000008BD000004C0030837
:102D9000465265616420636172547970653A2564B6
:102DA0000A0000002DE9FC5F0C4691469A4600207F
:102DB00000900190834619490BEB010003226946FC
:102DC000FFF754FFBDF80000FDF700FD07460022A5
:102DD000134BFDF76DFC0546FDF794FD2060BDF833
:102DE0000200FDF7F3FC074600220D4BFDF760FCE7
:102DF0000546FDF787FDC9F80000BDF80400FDF7A2
:102E0000E5FC05460022064BFDF752FC0746FDF7A0
:102E100079FDCAF80000BDE8FC9F000030C003083F
:102E200000408F4008B54FF6FF70009001226946C0
:102E30000548FFF71BFFBDF8001004A005F072FE67
:102E4000BDF8000008BD000002C0030846526561DD
:102E50006420496E69742056616C75653A30782536
:102E6000580A000008B54FF6FF700090012269462D
:102E70000548FFF7FBFEBDF8001004A005F052FE68
:102E8000BDF8000008BD000000C00308465265619F
:102E90006420746573744D6F64653A25640A00009C
:102EA0002DE9FC4704468946924600200090019097
:102EB000032269461648FFF7D9FEBDF80000FDF76A
:102EC00085FC07460022134BFDF7F2FB0546FDF794
:102ED00019FD2060BDF80200FDF778FC05460022D0
:102EE0000C4BFDF7E5FB0746FDF70CFDC9F80000AC
:102EF000BDF80400FDF76AFC05460022054BFDF70E
:102F0000D7FB0746FDF7FEFCCAF80000BDE8FC87CA
:102F100020C0030800408F401FB50A4B0FCB8DE83F
:102F20000F0007226946084800F036F9002406E041
:102F3000621C3DF81210D0B204F058FF641C062C3D
:102F4000F6DB1FBDD0DF000850C0030808B5022023
:102F500000F0B6F8012000F053F84FF07C530D4A12
:102F60000D49042000F076F80C4A00210C4800F0CE
:102F7000B3F8FFF7D1FF012000F058F8642000F00B
:102F800013F84AF65520009001226946054800F0E2
:102F900003F908BD8FC2753DCDCC4C3FCDCCCC3DA7
:102FA000CDCCCC3E02C0030838B504460094FFF7F0
:102FB00073FEBDF80010884200D138BD0122694679
:102FC000024800F0E9F800BFF7E7000070C003080E
:102FD000F8B504460D46012C0EDB062C0CDC0095E2
:102FE0006600064970180122694600F0D5F82946A6
:102FF000204604F0FBFE00BFF8BD000050C00308EF
:1030000038B5044600200090FFF790FEA04200D1A2
:1030100038BD0CB10120009001226946024800F041
:10302000BBF800BFF4E7000006C0030838B504464B
:103030000094FFF799FEBDF80010884200D138BD1A
:1030400001226946024800F0A7F800BFF7E7000038
:1030500004C003082DE9FC470446884615461E4671
:10306000042C01DDBDE8FC8741461348FDF797F9C4
:103070008146FDF7D1FB80B2ADF8000029460E482D
:10308000FDF78DF98146FDF7C7FB80B2ADF8020070
:1030900031460948FDF783F98146FDF7BDFB80B253
:1030A000ADF804000027054978180322694600F0AE
:1030B00073F800BFD6E7000000007A4430C0030870
:1030C00038B50446009401226946024800F064F8CD
:1030D00038BD000000C003082DE9FC4105460E463E
:1030E000144612492846FDF75AF90746FDF794FBA6
:1030F00080B2ADF8000031460C48FDF750F90746A4
:10310000FDF78AFB80B2ADF8020021460748FDF7C3
:1031100046F90746FDF780FB80B2ADF804000322B4
:103120006946034800F038F8BDE8FC8100007A44A5
:1031300020C0030810B5FFF795FE04464FF6FF7058
:10314000844203D100240020FFF7BAFF2046FEF797
:1031500035FC10BD02480349486003484860704789
:103160002301674500200240AB89EFCD70B50446CE
:1031700000BFFFF7BDFC012800D009E0002501E0F9
:10318000691CCDB20A2DFBDB611E8CB2002CF0D184
:1031900000BF04B9FF2070BD2DE9F05F80468A466C
:1031A0001746B8F1006F02D33348804501D3BDE81C
:1031B000F09FFFF7CFFFA8F1006B4FEADB25CBF3C1
:1031C0004909C9F58064A74200DC3C464EE04FF057
:1031D000006101EBC5204A142849FFF747FD00268E
:1031E0000BE009EB0600254931F810004FF6FF719E
:1031F000884200D003E0701C86B2A642F1DB00BF1B
:10320000A6421BDA4FF0006101EBC520FFF74AFC34
:10321000002608E03AF8160006EB0901174A22F8E2
:103220001100701C86B2A642F4DB4FF0006101EB86
:10323000C5204A14114900F043F804E022465146E3
:10324000404600F03DF8A74200D110E06D1C4FF061
:1032500000090AEB440A08EB4408381B87B2B7F5AB
:10326000806F02DD4FF4806400E03C46AFE700BFB2
:10327000FFF768FC00BF9AE700000408680400201C
:1032800070B505460E46FF20FFF770FF044694B95F
:103290000A48006940F00100084908612E80FF20BB
:1032A000FFF764FF0446012C05D00448006920F0B4
:1032B000010002490861204670BD00000020024064
:1032C0002DE9F04105460E461746002407E036F882
:1032D00014102846FFF7D4FFAD1C601C84B2BC421A
:1032E000F5DBBDE8F0812DE9F0410246002500261E
:1032F000002000230024002791F803C00CF00F05E4
:1033000091F803C00CF0100CBCF1000F03D091F841
:1033100002C04CEA050591F800C0BCF1000F31D0A5
:10332000146800202BE04FF0010C0CFA00F3B1F808
:1033300000C00CEA03069E4220D183004FF00F0C20
:103340000CFA03F7BC4305FA03FC4CEA040491F8B9
:1033500003C0BCF1280F06D14FF0010C0CFA00FCA1
:10336000C2F814C00AE091F803C0BCF1480F05D1BF
:103370004FF0010C0CFA00FCC2F810C0401C0828E9
:10338000D1D31460B1F800C0BCF1FF0F34DD546834
:1033900000202EE000F1080C4FF0010808FA0CF3B1
:1033A000B1F800C00CEA03069E4221D183004FF021
:1033B0000F0C0CFA03F7BC4305FA03FC4CEA0404B7
:1033C00091F803C0BCF1280F05D100F1080C08FAF0
:1033D0000CF8C2F8148091F803C0BCF1480F07D173
:1033E00000F1080C4FF0010808FA0CF8C2F8108040
:1033F000401C0828CED35460BDE8F081F0B50A46E1
:10340000002300240021002500F00046B6F1004F03
:1034100002D11D4EF16901E01B4E7168C0F30345F6
:1034200083B200F44016B6F5401F08D121F0706158
:10343000154E766826F07066134F7E6012E000F439
:103440008016B6F5801F06D1032606FA05F4A143BF
:1034500041F0706106E0460D360103FA06F6B1430D
:1034600041F0706122B1460D360103FA06F6314390
:1034700000F00046B6F1004F02D1034EF16101E0C9
:10348000014E7160F0BD00000000014002460020C6
:1034900093680B400BB1012000E0002070474161B0
:1034A00070470161704700000148007870470000D4
:1034B000020000200148007870470000030000204F
:1034C0000148007870470000040000200048704761
:1034D000280200200848806940F0080006498861F9
:1034E0000648006820F47F400449086008460068E8
:1034F00040F44C500860704700100240040C01403A
:1035000070B504461448006820F470401249086001
:103510000846006840F44050086000200F490860E9
:10352000002516E0E0090D49091D08606006040E3B
:103530000120FEF77BFF01200949C1F8A801FEF731
:1035400075FF0020054908600120FEF76FFF681C29
:10355000C5B2082DE6DB70BD040C0140A8812142F4
:103560000080214210B51648006820F470401449CC
:1035700008600846006840F4405008600120114986
:1035800008601148D0F82C0108B9002010BD0120B6
:103590000C49091F0860FEF749FF00200A49C1F8DD
:1035A000AC0108488038006808B10020EEE702202E
:1035B000FEF73CFF00200349091F08600120E5E7F2
:1035C000040C0140AC8121420080214210B510481A
:1035D000006820F470400E4908600846006840F416
:1035E0004050086000200B4908600B49C1F8AC014D
:1035F0000220FEF71BFF012006490860FEF716FFB8
:1036000001200549C1F8AC010220FEF70FFF10BDF3
:10361000040C0140A88121420080214210B5002401
:103620001548006820F47040134908600846006897
:1036300040F400400860012010490860FEF7F6FEE3
:1036400001200F49C1F8A801FEF7F0FE0AE0601C56
:10365000C4B2322C03DDFFF7B9FF002010BD0120FA
:10366000FEF7E4FE0548803800680028EFD10349E2
:10367000091F08600120F1E7040C0140AC812142E0
:10368000008021424CF6CC400149086070470000A0
:103690000030004010B500F013F810BD10B545F231
:1036A000555000F021F8042000F012F840F271208B
:1036B00000F014F800F004F8FFF7E4FF10BD00007C
:1036C0004AF6AA2001490860704700000030004017
:1036D000014948607047000000300040014988609F
:1036E000704700000030004001490860704700004A
:1036F0000030004001461248008800281EDD01EB22
:10370000C10000EB0110022202EB80000C4A12887B
:10371000904213DD0A480088401C094A108001EBE2
:10372000C10000EB0110022202EB8000044A128863
:10373000904201D1012070470020FCE70020FAE709
:10374000F200002010B5044600F022F801280BD149
:10375000601C0D490988B1EB400F0ADA0A4800885D
:10376000401C0949088004E00020074908800749F7
:10377000088005480088022803D1012003490880F9
:1037800010BD0020FCE70000F4000020F200002043
:1037900010B504210348FFF779FE08B9012010BDD8
:1037A0000020FCE70014014008B50121202002F0B0
:1037B0000BFA0420ADF8000048208DF8030069469C
:1037C0000148FFF790FD08BD0014014008B5012134
:1037D000102002F0F9F94FF40050ADF8000010206D
:1037E0008DF8030003208DF8020069460448FFF7B6
:1037F0007AFD4FF400510248FFF753FE08BD000068
:103800000010014010B59AB06022164901A8FCF7DB
:103810003DFD00241FE004EB440101AA02EB8101FD
:103820008868012102F0D0F904EB440001A901EB02
:1038300080008088ADF8640003208DF866001820B1
:103840008DF8670004EB440101AA52F8210019A980
:10385000FFF749FD641C082CDDDB0F2002490870CE
:103860001AB010BDE8DF0008F100002070B5044672
:1038700000260EE000F0ACF906461EB92DA005F0BA
:1038800051F907E0314631A005F04CF9C82000F0AD
:103890001DFAEFE700BF3548047044E0204608F009
:1038A000BBFB05460B2D33D2DFE805F0060A0E12EE
:1038B000161A1E22262A2E002DA005F033F92BE021
:1038C00030A005F02FF927E033A005F02BF923E015
:1038D00036A005F027F91FE03AA005F023F91BE018
:1038E0003EA005F01FF917E041A005F01BF913E019
:1038F00044A005F017F90FE048A005F013F90BE01C
:103900004CA005F00FF907E04FA005F00BF903E01C
:1039100054A005F007F900BF00BF05B905E0C820B5
:1039200000F0D4F900BF002CB8D100BF00F0FCFBC0
:10393000002070BD4D5055393235302042617369D9
:103940006320496E6974204F4B0A00004D50553971
:1039500032353020426173696320496E69742045B5
:1039600072726F723A25640A000000004201002062
:103970004D505520444D5020496E6974204F4B0DD9
:103980000A000000444D502073656E736F7220650D
:1039900072726F720D0A0000444D50204649464F26
:1039A000206572726F720D0A00000000444D5020B5
:1039B00053616D702072617465206572726F720D53
:1039C0000A000000444D50204669726577617265B7
:1039D000206572726F720D0A00000000444D502085
:1039E0006779726F206572726F720D0A00000000B5
:1039F000444D502066756E63206572726F720D0AB9
:103A000000000000444D50206F7574207370656590
:103A100064206572726F720D0A000000444D5020E0
:103A200073656C6674657374206572726F720D0ACB
:103A300000000000444D5020656E61626C65206599
:103A400072726F720D0A0000444D5020696E6974E5
:103A5000204D505539323530206572726F720D0A23
:103A600000000000444D5020756E6B6E6F7720652E
:103A700072726F720D0A000010B50948007818B113
:103A8000084808F0C1F90AE00648801D00F052F924
:103A9000044800F02BF903480C3000F0BFF910BDCA
:103AA00042010020D810002030B587B0182101A8AD
:103AB000FCF705FC0025FF208DF80400FB208DF8A5
:103AC000050015208DF806000B208DF80700314801
:103AD00080798DF808002F48C088000A8DF8090009
:103AE0002C48007A8DF80A002A480089000A8DF8CF
:103AF0000B002848807A8DF80C0026484089000A7F
:103B00008DF80D00234800788DF80E0021480088BC
:103B1000000A8DF80F001F4880788DF810001D48AE
:103B20004088000A8DF811001A4800798DF81200BB
:103B300018488088000A8DF813001648007B8DF81D
:103B4000140014488089000A8DF815001148807B04
:103B50008DF816000F48C089000A8DF817000D482F
:103B6000007C8DF818000B48008A000A8DF81900B7
:103B7000022405E001A8005D2844C5B2601CC4B25F
:103B8000162CF7DB8DF81A50172101A803F0A0FCC2
:103B900007B030BDD810002008B50121082002F080
:103BA00013F84FF48040ADF8000010208DF80300AA
:103BB00003208DF8020069460448FFF794FB4FF498
:103BC00080410248FFF76BFC08BD0000000C01407B
:103BD00010B50024FFF7E0FF00F078F90A2000F0AC
:103BE00075F880226B21682000F050FB642000F003
:103BF0006DF800226B21682000F048FB012000F0E6
:103C000000FB002000F0F4FA322000F021FB00223B
:103C10003821682000F03AFB00226A21682000F079
:103C200035FB00222321682000F030FB822237215F
:103C3000682000F02BFB7521682000F07BFA044619
:103C4000214616A004F06EFF712C0DD101226B21CC
:103C5000682000F01BFB00226C21682000F016FB9E
:103C6000322000F0F5FA01E0012010BD00210C2007
:103C700000F060FA044621460EA004F053FF482CE1
:103C800005D111220A210C2000F000FB01E00120E7
:103C9000EBE71E2000F01AF80020E6E74D505539FA
:103CA0003235302052442049443D30782530325856
:103CB0000A000000414B3839363320524420494431
:103CC0003D3078253032580A0000000010B5044617
:103CD0000548007818B9204606F030FF02E020467B
:103CE000FDF762FB10BD0000400100207CB50446DA
:103CF0006B4606223B21682000F040FA0546BDB91C
:103D00009DF801009DF8001040EA012000B22080DB
:103D10009DF803009DF8021040EA012000B2608087
:103D20009DF805009DF8041040EA012000B2A08033
:103D300028467CBD7CB504466B460622432168209C
:103D400000F01CFA0546002D5ED130480068B0F541
:103D50007A7F20DA2D480068401C2C4908609DF8C5
:103D600001009DF8001040EA012000B228490880B7
:103D70009DF803009DF8021040EA012000B224499A
:103D800048809DF805009DF8041040EA012000B22B
:103D90001F49888038E01F48007828B901201D4954
:103DA00008706420FDF75EFC9DF801009DF800108E
:103DB00040EA012000B2184908809DF803009DF8F0
:103DC000021040EA012000B2134948809DF8050026
:103DD0009DF8041040EA012000B20F49888008468F
:103DE00000880B490988401A00B220800A484088A0
:103DF00007494988401A00B2608007488088044912
:103E00008988401A00B2A08000207CBD44010020B7
:103E100048010020410100204E0100207CB50446ED
:103E20006B46062203210C2000F0A8F90546BDB917
:103E30009DF800009DF8011040EA012000B22080AA
:103E40009DF802009DF8031040EA012000B2608056
:103E50009DF804009DF8051040EA012000B2A08002
:103E600011220A210C2000F011FA28467CBD000026
:103E70000148C06970470000D810002010B500202C
:103E80000F4908600F48006820F070400D49086035
:103E90000846006840F04050086000200A49C1F818
:103EA000BC010220FEF7D5FA012005490860022076
:103EB000FEF7CFFA00200449C1F8B40110BD00009C
:103EC000B4812142040C01400080214208B5012147
:103ED000082001F079FE4FF42040ADF800001020DA
:103EE0008DF8030003208DF8020069460448FFF7AF
:103EF000FAF94FF420410248FFF7D3FA08BD000059
:103F0000000C014010B500200F4908600F48006800
:103F100020F070400D4908600846006840F04050AD
:103F2000086001200A49C1F8BC010220FEF791FA9D
:103F30000120054908600220FEF78BFA00200449A1
:103F4000C1F8B40110BD0000B4812142040C01404D
:103F50000080214270B5054600241748006820F013
:103F60007040154908600846006840F0004008604D
:103F7000002616E00020114908600220FEF769FAC9
:103F800001200F49C1F8B4016006040E0B487838CF
:103F9000006808B1601CC4B20120FEF75AFA701C18
:103FA000C6B2082EE6DB15B9FFF7ACFF01E0FFF75C
:103FB00065FF204670BD0000040C0140B481214221
:103FC0000080214270B504461548006820F070401A
:103FD000134908600846006840F04050086000201F
:103FE00010490860002517E0E0090E490831086013
:103FF0006006040E0220FEF72CFA01200A49C1F8DF
:10400000B4010220FEF725FA0020064908600220CC
:10401000FEF71FFA681CC5B2082DE5DB70BD000075
:10402000040C0140B48121420080214210B50F48A8
:10403000006820F070400D4908600846006840F0B4
:104040004050086001200A4908600A49C1F8B401DB
:104050000420FEF7FEF90020054908600420FEF761
:10406000F8F900200349C1F8B40110BD040C014067
:10407000BC8121420080214210B50F48006820F029
:1040800070400D4908600846006840F040500860E4
:1040900000200A4908600A49C1F8BC010420FEF763
:1040A000D8F90120054908600549C1F8BC01042080
:1040B000FEF7CFF910BD0000040C0140B48121428D
:1040C0000080214210B500241448006820F07040A0
:1040D000124908600846006840F00040086001206E
:1040E0000F490860FEF7B5F901200E49C1F8B40187
:1040F000FEF7AFF907E0601CC4B2FA2C03DDFFF74E
:10410000BBFF012010BD0648803800680028F2D1AE
:1041100003490839086000BFF4E70000040C0140BF
:10412000BC81214200802142012001490870704772
:104130004001002070B504460D46FFF777FF0021CF
:1041400041EA4401C8B2FFF73DFFFFF7BBFF284635
:10415000FFF738FFFFF7B6FFFFF768FF012101EB1C
:104160004401C8B2FFF72EFFFFF7ACFF0020FFF7B6
:10417000F1FE0646FFF780FF304670BD2DE9F041A5
:1041800006460F4614461D46FFF750FF002141EA40
:104190004601C8B2FFF716FFFFF794FF20B1FFF703
:1041A0006BFF0120BDE8F0813846FFF70BFFFFF7FA
:1041B00089FFFFF73BFF012101EB4601C8B2FFF782
:1041C00001FFFFF77FFF0DE0012C04D10020FFF776
:1041D000C1FE287003E00120FFF7BCFE2870601EBE
:1041E000C4B26D1C002CEFD1FFF746FF0020D9E7C9
:1041F00010B50446E006020E1C21682000F046F8C7
:1042000010BD10B50446E006020E1B21682000F028
:104210003DF810BD70B504460025BC2C01DB01251E
:1042200010E0622C01DB02250CE02A2C01DB0325C7
:1042300008E0142C01DB042504E00A2C01DB052531
:1042400000E006252A461A21682000F01FF870BDFC
:1042500070B50446B4F57A7F01DD4FF47A74042C0E
:1042600000DA04244FF47A7090FBF4F0401EC5B2DB
:104270002A461921682000F009F80546264604EB75
:10428000D671C1F34F00FFF7C5FF70BD70B504468E
:104290000D461646FFF7CAFE002141EA4401C8B2A6
:1042A000FFF790FEFFF70EFF18B1FFF7E5FE0120C4
:1042B00070BD2846FFF786FEFFF704FF3046FFF784
:1042C00081FEFFF7FFFE18B1FFF7D6FE0120EFE7F2
:1042D000FFF7D2FE0020EBE72DE9F04105460E4640
:1042E00017469846FFF7A2FE002141EA4501C8B2F1
:1042F000FFF768FEFFF7E6FE20B1FFF7BDFE0120E5
:10430000BDE8F0813046FFF75DFEFFF7DBFE0024DD
:104310000CE018F80400FFF755FEFFF7D3FE18B1C4
:10432000FFF7AAFE0120EBE7601CC4B2BC42F0DB41
:10433000FFF7A2FE0020E3E703468B4201DA0846BE
:104340007047934201DD1046FAE71846F8E700008F
:104350002DE9F04706460C461546994600F0F4F95B
:1043600080466042FCF713FA7E4908603046FCF74D
:104370000EFA7D4908606842FCF709FA82467B49DB
:10438000FCF73FF807464146FCF709F87849086012
:1043900036B92CB925B9012000F090FCBDE8F087B2
:1043A0007048016870480068FBF7A1FF82467048BA
:1043B00001685046FBF79BFF0746FCF714FA6D496E
:1043C00008606848016868480068FBF7E2FF8246B9
:1043D000674801685046FBF78AFF0746FCF703FA77
:1043E000654908605F4801685F480068FBF7D1FFD6
:1043F00082465F4801685046FBF7CBFF0746FCF753
:10440000F2F95E4908605748016857480068FBF7B1
:104410006EFF8246564801685046FBF7BAFF0746D2
:10442000FCF7E1F95649086000F0B2F9022844D1DE
:1044300050480068B0F52F7F03DD4FF42F704D49D1
:1044400008604C48006810F52F7F02DA4D48494952
:10445000086049480068B0F52F7F03DD4FF42F70E6
:10446000454908604448006810F52F7F02DA454846
:104470004149086041480068B0F52F7F03DD4FF4E3
:104480002F703E4908603D48006810F52F7F02DA22
:104490003C483A4908603A480068B0F52F7F03DD90
:1044A0004FF42F70364908603548006810F52F7FAB
:1044B00047DA34483249086043E02E480068B0F5D6
:1044C0007A7F03DD4FF47A702A4908602948006832
:1044D00010F57A7F02DA2C482649086026480068E1
:1044E000B0F57A7F03DD4FF47A70234908602248E3
:1044F000006810F57A7F02DA23481F4908601F48D8
:104500000068B0F57A7F03DD4FF47A701B490860CC
:104510001A48006810F57A7F02DA1B4817490860CC
:1045200017480068B0F57A7F03DD4FF47A701449BC
:1045300008601348006810F57A7F02DA12481049C3
:1045400008600F48008803B20C48008802B20A488D
:10455000008801B20748008800B200F067FB00BF86
:104560001CE700008C0000209000002000007A442E
:1045700094000020980000209C000020A000002053
:10458000A400002044FDFFFF18FCFFFF70B50546A6
:104590000C461646304600F07BFB29480480082D67
:1045A0004BD2DFE805F0040F161E252D39460020FA
:1045B000234908800CB1012100E00021084600F0E9
:1045C0007DFB3BE033460022114620B2FFF7C0FEE0
:1045D00034E0334600221146604200B2FFF7B8FED5
:1045E0002CE03346002221B21046FFF7B1FE25E051
:1045F00033460022604201B21046FFF7A9FE1DE0DB
:10460000002000F045FB04EB840002B200231946B1
:104610001846FFF79DFE11E0002000F039FB6042D4
:1046200000EB800002B2002319461846FFF790FE07
:1046300004E0012000F042FB00E000BF00BF70BDBD
:10464000AC0000202DE9F04104460D4616461F46F9
:104650001E480078012806D002280BD0042822D05A
:1046600005282ED126E03B46324629462046FFF754
:104670006FFE27E0B4F52F7F01DD4FF42F7414F5A2
:104680002F7F00DA124CB5F52F7F01DD4FF42F7527
:1046900015F52F7F00DA0E4D3B463246294620465F
:1046A000FFF756FE0EE03B46324629462046FFF70E
:1046B0004FFE07E03B46324629462046FCF71EFCEB
:1046C00000E000BF00BFBDE8F08100005D000020F9
:1046D00044FDFFFF2DE9F04106460C46174604EB6A
:1046E00084004FF6FF7101EA400516480078012862
:1046F00006D002280AD0042813D005281DD116E0C0
:104700003A4629463046FFF741FF17E0B5F52F7FBF
:1047100001DD4FF42F753A4629463046FFF736FF44
:104720000CE03A4629463046FFF730FF06E03A46AD
:1047300029463046FCF72CFD00E000BF00BFBDE875
:10474000F08100005D0000200C480078012801D1B4
:104750000B48704709480078022801D10948F8E75A
:1047600006480078032801D10748F2E7034800789B
:10477000052801D10548ECE70148EAE75D00002083
:10478000148E24439A19564300802E439A193F43AE
:1047900001480078704700005D0000200C48007858
:1047A000012801D10B48704709480078022801D13F
:1047B0000948F8E706480078032801D10548F2E7E0
:1047C00003480078052801D10448ECE70148EAE7EE
:1047D0005D000020F8334C43B6537B4333335743DB
:1047E00000200B490978012906D0022906D00429A6
:1047F00006D0052908D105E0064807E0064805E08F
:10480000044803E0054801E0024800BF00BF7047CC
:104810005D0000200000A54400001A45000051443E
:1048200010B50D48FDF728FE002011E00A4951F8A7
:1048300020100A4A52F82020891A094A42F820100A
:10484000054951F82010054A42F82010411CC8B211
:104850000428EBDB10BD00004802002058020020B5
:10486000680200200146002005E0044A52F820209A
:1048700041F82020401C0428F7DB70477802002014
:104880002DE9F04F87B004460025002003900490E6
:1048900005900690FFF782FF0290FFF7A1FF0190BD
:1048A000FFF752FF0090FFF7BBFF00BF13E07C490A
:1048B00051F82510642201FB02F0FBF768FF074660
:1048C0000299FBF76CFD06460199FBF79AFD03A9D7
:1048D00041F825006D1C042DE9DB724800780128A1
:1048E00004D0022851D005287ED19FE0DDE90301E4
:1048F000FBF7FDFC81460599FBF7F9FC804606991C
:10490000FBF7F5FC07464FF08141FBF77AFD0646C1
:10491000FBF769FF00B22080DDE90301FBF739FDF9
:1049200081460599FBF735FD80460699FBF7DFFCCC
:1049300080F000474FF081413846FBF762FD0646A4
:10494000FBF751FF00B26080DDE90301FBF7CFFC0C
:1049500083460599FBF71DFD82460699FBF719FD75
:1049600080F000494FF081414846FBF74AFD804600
:104970000099FBF746FD07464B49FBF710FD06463D
:10498000FBF731FF00B2A08075E0DDE90301FBF722
:10499000AEFC81460599FBF7AAFC80460699FBF719
:1049A000A6FC07464FF08141FBF72BFD0646FBF7BF
:1049B0001AFF00B22080DDE90301FBF7EAFC814623
:1049C0000599FBF7E6FC80460699FBF790FC80F022
:1049D00000474FF081413846FBF713FD0646FBF7D1
:1049E00002FF00B2608000E044E0DDE90301FBF774
:1049F0007EFC83460599FBF7CCFC82460699FBF7C3
:104A0000C8FC80F000494FF081414846FBF7F9FCB3
:104A100080460099FBF7F5FC07462349FBF7BFFCEE
:104A20000646FBF7E0FE00B2A08024E00699049859
:104A3000FBF75DFC07464FF08041FBF7E2FC0646C2
:104A4000FBF7D1FE00B22080002060800699049818
:104A5000FBF79FFC80F0004840460099FBF7D1FC33
:104A600007461149FBF79BFC0646FBF7BCFE00B26C
:104A7000A08000E000BF00BF0C48007868B10025AE
:104A800006E003A850F82500094941F825006D1CEF
:104A9000042DF6DB064800F00FFD07B0BDE8F08FEF
:104AA000680200205D00002000007A4454000020CD
:104AB000780200202DE9F0411048FFF7E1FE104890
:104AC0000078C8B10F49C869FBF78DFE04B20D49E3
:104AD0008869FBF788FE05B20A494869FBF783FE3F
:104AE00006B208490869FBF77EFE07B223462A464C
:104AF0003146384600F06AF8BDE8F08156000020E3
:104B000054000020780200203EB500200090019063
:104B100002900025FF208DF80000FB208DF8010099
:104B20000A208DF802008DF80300184800788DF8EF
:104B3000040016480088000A8DF8050013488078A4
:104B40008DF8060011484088000A8DF807000F48CC
:104B500000798DF808000D488088000A8DF809005A
:104B6000FCF754FDC0B28DF80A00022405E01DF8E0
:104B700004002844C5B2601CC4B20B2CF7DB8DF8CE
:104B80000B500C21684602F0A3FC3EBD56000020ED
:104B900070B50446062C00DB70BD0B480078A042BF
:104BA00000D1F9E7084804700078FEF73FFA06489C
:104BB0000078052806D1FCF7A3FAC5B229460020E3
:104BC00000F06AFF00BFE7E75D0000202DE9F0413B
:104BD00004460F4615461E4614F5616F06DBB4F514
:104BE000616F03DC2146002000F00EF917F5616FBC
:104BF00006DBB7F5616F03DC3946012000F004F9EC
:104C000015F5616F06DBB5F5616F03DC29460220FF
:104C100000F0FAF816F5616F06DBB6F5616F03DC9C
:104C20003146032000F0F0F8BDE8F0812DE9FC5F8B
:104C300005460E4691469A460120124908701248D0
:104C400005844684A0F82490A0F826A0002415E04E
:104C50000D49203131F91400FBF7A7FD00220B4B61
:104C6000CDE90001FBF7B2FC0746FBF74BFE83469C
:104C70005946204600F024FE601CC4B2042CE7DB39
:104C8000BDE8FC9F54000020780200200000F03FA7
:104C900070B504461CB900200749087002E00120E5
:104CA000054908700448007820B1FFF7E1F805468F
:104CB00000F020FE70BD00005C00002010B504462E
:104CC00000231A4619461846FFF7B0FF042000F0EB
:104CD0000BFC00200349087003490870204600F0CF
:104CE000FBF810BD540000205C00002001460029A4
:104CF00003DD01F5C86000B27047002903DAA1F5B1
:104D0000C86000B2F8E70020F6E7000030B587B0D1
:104D100005460C4601214FF4205000F055FF0121BB
:104D2000084600F051FF01213448FEF767FB344884
:104D300001F0DAFF334801F0D7FFADF80040681EFC
:104D400080B2ADF804000020ADF80600ADF8020016
:104D500069462B4802F0C4FA69462A4802F0C0FAB4
:104D600003A802F07BFA6020ADF80C000120ADF83A
:104D70000E000020ADF81400ADF8120003A9204881
:104D800002F040F903A91E4802F088F903A91C4863
:104D900002F0D6F903A91A4802F022FA03A9194829
:104DA00002F030F903A9174802F01AFA6020ADF8B2
:104DB0000C000020ADF80E000420ADF8100000201B
:104DC000ADF81400ADF8120003A90E4802F066F920
:104DD00003A90C4802F0B4F90121094801F074FF5D
:104DE0000121084801F070FF0121054801F060FF32
:104DF0000121044801F05CFF07B030BD40001600FF
:104E000000340140002C014070B505460E46304686
:104E1000FFF76CFF0446B4F5616F01DB4FF461648A
:104E200014F5616F00DC294C35B1012D15D0022D30
:104E300026D0032D46D134E0604204B2002C05DBBD
:104E400023490C800020091D088005E0002020492E
:104E500008806042091D088035E0604204B2002CE1
:104E600006DB1B4908310C800020091D088006E084
:104E700000201749083108806042091D088022E09F
:104E8000002C06DB13490C80002012490C390880E5
:104E900006E000200F49088060420E490C39088066
:104EA00011E0002C06DB0B4908390C800020091D9D
:104EB000088006E000200749083908806042091D83
:104EC000088000E000BF00BF70BD0000F0F1FFFFF0
:104ED00034340140402C014010B5044604B1012493
:104EE000C4EB4410C0EB04204FF6FF7202EA00113D
:104EF000284802F0BDF9C4EB4410C0EB04204FF683
:104F0000FF7202EA0011234802F0B4F9C4EB441026
:104F1000C0EB04204FF6FF7202EA00111D4802F0B8
:104F2000ABF9C4EB4410C0EB04204FF6FF7202EA69
:104F30000011184802F0A2F9C4EB4410C0EB0420A1
:104F40004FF6FF7202EA0011134802F091F9C4EB28
:104F50004410C0EB04204FF6FF7202EA00110E4825
:104F600002F088F9C4EB4410C0EB04204FF6FF7246
:104F700002EA0011084802F07FF9C4EB4410C0EBCC
:104F800004204FF6FF7202EA0011034802F076F99E
:104F900010BD000000340140002C014070B500211C
:104FA00000230F22C47804B3154C246804F4E06491
:104FB000C4F5E064210AC1F10403CA40447804FA4C
:104FC00003F184781440214309010E4C0678A15561
:104FD000047804F01F050124AC4005786D11AD0084
:104FE00005F1E025C5F8004109E0047804F01F054B
:104FF0000124AC40044D0678761145F8264070BD7A
:105000000CED00E000E400E080E100E00249014333
:10501000024A1160704700000000FA050CED00E044
:1050200010B5002001F018FA10BDF8B507460C467F
:1050300015461E46002C0CDD032C0ADC601E00EB1E
:1050400080004006020E2B4600213846009600F0F4
:1050500001F8F8BD2DE9F04107460C4615461E46FD
:10506000DDF818800EB1FFF7DBFF2946204601F07E
:1050700003FA01220549384601F0FAFAB8F1000FA7
:1050800001D000F005F8BDE8F08100001801002013
:1050900010B501F003FB10BDF0B587B007460C4614
:1050A00015461E46012F06D0022F0BD0042F10D01C
:1050B000052F1CD114E00023012211461DA0FFF78B
:1050C000B4FF1BE00023012211461EA0FFF7ADFF35
:1050D00014E00023012211461FA0FFF7A6FF0DE0F8
:1050E00000230122114620A0FFF79FFF06E00023C6
:1050F0000122114620A0FFF798FF00BF00BF2B46FA
:10510000224621A102A8009603F01CFD00231A46A6
:10511000022102A8FFF789FF20A323A225A102A84C
:1051200003F010FD01230022032102A8FFF77DFFF9
:1051300007B0F0BD524F534D41535445525F583361
:1051400000000000524F534D41535445525F5833B5
:105150002D506C7573000000524F534D4153544510
:10516000525F583100000000524F534D4153544597
:10517000525F5232000000004E6F6E652043617234
:10518000205479706500000056657273696F6E3A3D
:105190005625642E25642E256400000031383A33EC
:1051A000373A3533000000004D6179203134203228
:1051B0003032320025732020257300002DE9F0479E
:1051C00086B007460C4615461E461D492046FBF78D
:1051D00018F98246FBF707FB804619493846FBF76A
:1051E00010F98246FBF7FFFA814643464A4615A16D
:1051F00001A803F0A7FC00230122022101A8FFF768
:1052000014FF0F493046FBF7FCF88246FBF7EBFA38
:1052100080460B492846FBF7F4F88246FBF7E3FA91
:10522000814643464A460BA101A803F08BFC0123AB
:105230000022032101A8FFF7F8FE06B0BDE8F087C1
:10524000000020414D313A25642C204D323A25642E
:10525000000000004D333A25642C204D343A25647B
:105260000000000000B587B0FFF792FA012806D0D1
:1052700002280BD0042810D005281CD114E00023EC
:10528000012211461DA0FFF7D0FE1BE000230122E2
:1052900011461EA0FFF7C9FE14E0002301221146AB
:1052A0001FA0FFF7C2FE0DE000230122114620A03F
:1052B000FFF7BBFE06E000230122114620A0FFF706
:1052C000B4FE00BF00BF05200023022220A10090F1
:1052D00002A803F037FC00231A46022102A8FFF7B8
:1052E000A4FE20A102A803F02DFC0123002203212B
:1052F00002A8FFF79AFE07B000BD0000524F534DC1
:1053000041535445525F583300000000524F534DF3
:1053100041535445525F58332D506C757300000053
:10532000524F534D41535445525F583100000000D5
:10533000524F534D41535445525F523200000000CA
:105340004E6F6E65204361722054797065000000D5
:1053500056657273696F6E3A5625642E25642E2544
:105360006400000054657374204D6F646500000094
:1053700000B585B005A1684603F0E4FB01231A4699
:1053800002216846FFF751FE05B000BD4D6F646510
:10539000204572726F72000010B586B00446002C72
:1053A00004DD08A101A803F0CDFB03E009A101A8D9
:1053B00003F0C8FB01231A46022101A8FFF735FEBE
:1053C00006B010BD536572766F2052656164204F40
:1053D0004B210000536572766F2052656164204650
:1053E00061696C21000000002DE9F04186B004469F
:1053F0002046FBF7EBF905460022094BFBF758F96D
:1054000007463A460B4607A101A803F09BFB012380
:105410001A46022101A8FFF708FE06B0BDE8F08198
:1054200000002440566F6C746167653A252E316622
:105430005600000000B585B005A1684603F082FB68
:1054400001231A4602216846FFF7EFFD05B000BDB3
:10545000506C656173652057616974696E672E2EA3
:105460000000000070B586B004460E492046FBF7E8
:105470006FFA04D20C492046FAF78BFF0446204607
:10548000FBF7FDF905462A460B4608A101A803F0E3
:1054900059FB01231A46022101A8FFF7C6FD06B0F9
:1054A00070BD0000000034430000B4435941573A36
:1054B000252E31660000000070B5054600240DE081
:1054C00055F8241004EB8402064B03EBC20000F0F5
:1054D00051F805F1100141F82400641C042CEFDBA5
:1054E00070BD0000A002002010B5042800DD10BD32
:1054F000042820D100211BE0002201EB81031C4C79
:1055000004EBC3039A6001EB810304EBC3039A61CC
:1055100001EB810304EBC303DA6101EB810304EBCC
:10552000C3031A6201EB810304EBC3035A62491CF3
:105530000429E1DB1AE0002100EB80020C4B03EBB5
:10554000C202916000EB800203EBC202916100EBAA
:10555000800203EBC202D16100EB800203EBC202C6
:10556000116200EB800203EBC202516200BFBEE792
:10557000A00200202DE9F05F04460D462946206870
:10558000FAF707FFA0614FF08040216AFAF707FFA2
:105590008346A169FAF700FF8246E169FAF7A7FEA0
:1055A00081466169FAF7FBFE0746A1692069FAF7AF
:1055B000F6FE8246216AA069FAF7EBFE8346E168AF
:1055C000FAF7EDFE81465146FAF791FE80463946DC
:1055D000FAF78DFE0646A168FAF789FEA060206AF8
:1055E000E061A06920620849A068FBF7B1F901D227
:1055F0000548A0600549A068FBF7A0F901D203485F
:10560000A060A068BDE8F09F0000FA440000FAC462
:10561000002032E0002100EB80021D4B43F83210E5
:1056200000EB800203EBC202916000EB800203EB0F
:10563000C202916100EB800203EBC202D16100EB78
:10564000800203EBC202116200EB800203EBC20294
:105650005162104900EB800203EBC202D1600E4997
:1056600000EB800203EBC20211614FF07C5100EBB2
:10567000800203EBC2025161401C0428CADB0748C8
:1056800007494860002088600648C86070470000ED
:10569000A0020020CDCC4C3F8FC2753DCDCCCC3E7E
:1056A00060000020CDCCCC3DFEB50446002000902B
:1056B000019002900026002C7EDD062C7CDAFF2073
:1056C0008DF80000FB208DF801000A208DF8020003
:1056D00013208DF803008DF80440052C45D11420CB
:1056E0008DF803005A4948685A49FAF758FE0746A8
:1056F000FBF779F8C0B28DF805005549486855495F
:10570000FAF74DFE0746FBF76EF8000A8DF8060023
:105710004F4988684F49FAF742FE0746FBF763F89E
:10572000C0B28DF807004A4988684A49FAF737FE3F
:105730000746FBF758F8000A8DF808004449C86886
:105740004449FAF72CFE0746FBF74DF8C0B28DF836
:1057500009003F49C8683F49FAF721FE0746FBF7B1
:1057600042F8000A8DF80A0061E0611E01EB810138
:10577000394A02EBC101C8683649FAF710FE0746FC
:10578000FBF731F8C0B28DF80500611E01EB810115
:10579000314A02EBC101C8682E49FAF700FE0746FC
:1057A000FBF721F8000A8DF80600611E01EB81016C
:1057B000294A02EBC10100E049E008692549FAF7EE
:1057C000EEFD0746FBF70FF8C0B28DF80700611E2B
:1057D00001EB8101204A02EBC10108691D49FAF77A
:1057E000DEFD0746FAF7FFFF000A8DF80800611E8C
:1057F00001EB8101184A02EBC10148691549FAF72A
:10580000CEFD0746FAF7EFFFC0B28DF80900611E22
:1058100001EB8101104A02EBC10148690D49FAF719
:10582000BEFD0746FAF7DFFF000A8DF80A000225E1
:1058300005E01DF805003044C6B2681CC5B20B2D4A
:10584000F7DB8DF80B600C21684601F041FEFEBDD0
:105850006000002000007A44A002002070B50C46D1
:10586000042800DD70BD042815D1002110E001EBF3
:105870008105124E06EBC505EC6001EB810506EBD8
:10588000C5052A6101EB810506EBC5056B61491C65
:105890000429ECDB0FE000EB8001084D05EBC101B2
:1058A000CC6000EB800105EBC1010A6100EB8001D7
:1058B00005EBC1014B6100BFD4E70000A00200204E
:1058C00010B5042800DD10BD04280AD1002205E02F
:1058D00002EB8203064C44F83310521C042AF7DB17
:1058E00004E000EB8002024B43F8321000BFEAE70D
:1058F000A0020020034908600021024A9161116161
:105900005161704760000020024B58609960DA6076
:10591000704700006000002023480088401C224996
:105920000880224800880988884203DB012020493A
:10593000086002E000201E4908601C4840881A499F
:105940000988884204DB01201949091F086003E027
:1059500000201749091F08601448808812490988E7
:10596000884204DB012012490839086003E0002066
:105970000F49083908600D48C0880B4909888842DA
:1059800004DB01200A490C39086003E000200849C3
:105990000C39086004480088B0F5FA6F02DB00207B
:1059A0000149088070470000080100200E01002016
:1059B0008C01224208B50121102000F005F90820D1
:1059C000ADF8000010208DF8030003208DF80200D0
:1059D00069462E48FDF787FC08212C48FDF761FD3C
:1059E0000121102000F0F0F80420ADF80000102094
:1059F0008DF8030003208DF8020069462348FDF767
:105A000072FC04212148FDF74CFD0121102000F01B
:105A1000DBF80220ADF8000010208DF80300032011
:105A20008DF8020069461948FDF75DFC0221174810
:105A3000FDF737FD0121102000F0C6F80120ADF878
:105A4000000010208DF8030003208DF80200694645
:105A50000E48FDF748FC01210C48FDF722FD00200F
:105A600011E05A210A4A11541146095C01EB410226
:105A700002EBC10101F5FA710A2291FBF2F1054A2C
:105A800022F81010401C0428EBDB08BD0010014078
:105A90000A0100200E010020042800DB7047B42911
:105AA00000DDFBE7074A115401EB410202EBC102A2
:105AB00002F5FA720A2392FBF3F2034B23F810204B
:105AC00000BFEBE70A0100200E01002030B5B4282A
:105AD0000CDC1D4C207000EB400404EBC00404F50A
